:100000000C9434000C943E000C943E000C943E0082
:100010000C943E000C943E000C943E000C943E0068
:100020000C943E000C943E000C943E000C943E0058
:100030000C943E000C943E000C943E000C943E0048
:100040000C943E000C943E000C943E000C943E0038
:100050000C943E000C943E000C943E000C943E0028
:100060000C943E000C943E0011241FBECFEFD8E04C
:10007000DEBFCDBF0E9451000C9469000C940000BB
:100080004A9909C08AEF90E020E931E0F9013197FF
:10009000F1F70197D9F789B186958695809581709A
:1000A00008951F93CF93DF9352985A9A259A10E29E
:1000B000C0E9D1E00E944000813019F485B1812768
:1000C00085B984EC99E0FE013197F1F7019791F33E
:0600D000FACFF894FFCF07
:00000001FF
